:020000040800F2
:100000000050002065290008ED020008F5010008F5
:10001000EF020008F1020008F302000800000000EF
:10002000000000000000000000000000F5020008D1
:10003000F7020008000000007B01000855290008B5
:10004000AD290008AD290008AD290008AD29000838
:10005000AD290008AD290008AD290008AD29000828
:10006000AD290008AD290008AD290008AD29000818
:10007000AD290008AD290008AD290008AD29000808
:10008000AD290008AD290008AD290008AD290008F8
:10009000AD290008AD290008AD290008AD290008E8
:1000A000AD290008AD290008AD290008AD290008D8
:1000B000AD290008AD290008AD290008AD290008C8
:1000C000AD290008AD290008AD290008AD290008B8
:1000D000AD290008AD290008AD290008AD290008A8
:1000E000AD290008AD290008AD2900080000000076
:1000F0000000000000000000000000000000000000
:0C01000000000000000000005FF808F1A3
:10010C0010B5054C237833B9044B13B10448AFF345
:10011C0000800123237010BD4C0000200000000063
:10012C00F829000808B5034B1BB103490348AFF38A
:10013C00008008BD0000000050000020F8290008D5
:10014C00EFF3108072B6704780F310887047354A11
:10015C001368012B04D04FF001031360324A106076
:10016C00324A116032484FF0805101607047EFF312
:10017C00108272B62B48016891B14FF000010160FA
:10018C002948016829B1EFF3098121E9F00F0068D2
:10019C000160264909680968B1E8F00F81F3098804
:1001AC0082F310884EF0040E7047204908601E49F7
:1001BC004FF0000008601B494FF0010008601D481B
:1001CC001D49D0F8002041EA0201016018484FF0A7
:1001DC008051016019480068006800BF80F30888EE
:1001EC0061B662B6704700BFEFF308801EF0040FD3
:1001FC0001D0EFF3098020E9F00F40F804ED1EF078
:10020C00040F02D080F3098801E080F3088800B560
:10021C0002F0F0F95DF804EB4EF0040E7047EFF3CA
:10022C000580704750080020480800204C0800202A
:10023C0004ED00E020ED00E00000FFFF08ED00E021
:10024C0008B54FF40051044800F032FA4FF4FA703C
:10025C0001F0FEFFF5E700BF0010014008B502F009
:10026C001DFBFCE700B585B0052301931923009312
:10027C004FF4007300221249124801F04BFF124B4D
:10028C00186008B102F00DF8104C052303931823E5
:10029C0002934FF4806301930D4B009300230D4A9E
:1002AC000D49204601F014FF204601F0FAFF0B48DF
:1002BC0001F054FB4FF47A7001F0CAFFF7E700BF6E
:1002CC0069020008242A0008E004002068000020CD
:1002DC00E00000204D0200082C2A0008342A0008F7
:1002EC00FEE7FEE7FEE7FEE77047704782B00E4B75
:1002FC009A6942F001029A619A6902F00102009235
:10030C00009ADA6942F08052DA61DB6903F08053BB
:10031C000193019B054A536823F0E06343F000739B
:10032C00536002B0704700BF001002400000014053
:10033C0030B587B0002302930393049305930268AE
:10034C001B4B9A4201D007B030BD03F558439A6954
:10035C0042F480429A619A6902F480420092009AB7
:10036C009A6942F004029A619B6903F004030193B9
:10037C00019B4FF400730293022303930323059311
:10038C000C4D02A9284600F07BF84FF480630293D1
:10039C0000240394049402A9284600F071F8224624
:1003AC002146252000F0A0F9252000F0D5F9CAE758
:1003BC00003801400008014010B504460E4B187877
:1003CC004FF47A73B3FBF0F30C4A1068B0FBF3F004
:1003DC0000F0D0F968B90F2C01D901200AE00022F5
:1003EC0021464FF0FF3000F07FF9054B1C600020D8
:1003FC0000E0012010BD00BF00000020080000201C
:10040C000400002008B5074A136843F0100313607A
:10041C00032000F057F90F20FFF7CEFFFFF766FF20
:10042C00002008BD00200240014B1868704700BF37
:10043C00E4040020014B1868704700BF080000203E
:10044C0008B5FFF7F7FF044B5B68C3F30223034ABD
:10045C00D35CD84008BD00BF00100240602A0008E1
:10046C0008B5FFF7E7FF044B5B68C3F3C223034AED
:10047C00D35CD84008BD00BF00100240602A0008C1
:10048C0070B582B00024A446A6E0804DAA4210D0DC
:10049C0007D97F4DAA420CD005F58035AA4208D069
:1004AC0013E0A5F58015AA4203D005F57025AA42E4
:1004BC0007D18A68002A58D0012A51D043610824F8
:1004CC0003E0A5F58015AA42F3D0BEF1FF0F4ED87C
:1004DC000646BEF1FF0F4CD84FEA8C0233680F254D
:1004EC00954023EA050304FA02F2134333604B6888
:1004FC0013F0805F6ED0674B9A6942F001029A61EB
:10050C009B6903F001030193019B4FEA9C02951C2C
:10051C00614B53F825600CF003039D000F23AB4097
:10052C0026EA03065D4B984229D003F58063984276
:10053C0000F08E8003F58063984200F08B8003F509
:10054C008063984219D004231AE0CC68BDE7CC68CC
:10055C000434BAE7CC680834B7E7CC680C34B4E799
:10056C0003610824B1E70024AFE70424ADE7061DBE
:10057C00AFE7ACF108029200B0E7032300E00023E0
:10058C00AB4033430232444D45F822304B6813F4F0
:10059C00801F61D0424A936843EA0E0393604B6814
:1005AC0013F4001F5ED03E4AD36843EA0E03D360B7
:1005BC004B6813F4003F5BD0394A536843EA0E038F
:1005CC0053604B6813F4803F58D0354A136843EAA4
:1005DC000E0313600CF1010C0A6832FA0CF353D0C1
:1005EC00012303FA0CF302EA030E33EA0202F1D1FF
:1005FC004A68122A3FF649AF122A3FF666AF01A5A8
:10060C0055F822F0BF0400085705000861050008E2
:10061C0073050008D7040008D7040008D7040008A5
:10062C00D7040008D7040008D7040008D704000832
:10063C00D7040008D7040008D7040008D704000822
:10064C00D7040008D70400085B05000867050008FC
:10065C00012395E7022393E7114A936823EA0E03DB
:10066C0093609CE70E4AD36823EA0E03D3609FE79E
:10067C000B4A536823EA0E035360A2E7084A136837
:10068C0023EA0E031360A5E702B070BD0000221030
:10069C000000311000100240000001400008014031
:1006AC00000401400AB101617047090401617047FF
:1006BC00C36801EA030221EA030141EA0241016134
:1006CC0070470000074AD36823F4E0631B041B0C3B
:1006DC00000200F4E060034343F0BF6343F40033D3
:1006EC00D360704700ED00E000B5194BDB68C3F335
:1006FC000223C3F1070CBCF1040F28BF4FF0040C0C
:10070C0003F1040EBEF1060F18D9033B4FF0FF3E68
:10071C000EFA0CFC21EA0C0199400EFA03F322EAC2
:10072C000303194300280BDB0901C9B200F1604037
:10073C0000F5614080F800135DF804FB0023E5E749
:10074C0000F00F000901C9B2024B1954F4E700BFC5
:10075C0000ED00E014ED00E0002807DB00F01F02C4
:10076C00400901239340024A42F82030704700BFF1
:10077C0000E100E00138B0F1807F0BD24FF0E023B4
:10078C005861054AF02182F8231000209861072255
:10079C001A6170470120704700ED00E070470000BF
:1007AC001F4B5B6803F00C03042B14D0082B16D0E2
:1007BC001BB11C4B1C4A1A6002E01A4B1A4A1A60F5
:1007CC00174B5B68C3F30313184AD15C154A1368C3
:1007DC00CB4013607047134B134A1A60F0E7104A72
:1007EC0053685268C3F38343023312F4803F05D13C
:1007FC000F4A02FB03F30B4A1360E1E7084A526805
:10080C0012F4003F05D00A4A02FB03F3054A1360B9
:10081C00D6E7054A02FB03F3024A1360D0E700BF98
:10082C00001002400800002000127A00502A000834
:10083C0000093D00026802F10C0353E8003F23F469
:10084C0090730C3242E800310029F3D1026802F1B6
:10085C00140353E8003F23F00103143242E8003143
:10086C000029F3D1036B012B05D0202380F84230F3
:10087C00002303637047026802F10C0353E8003F46
:10088C0023F010030C3242E800310029F3D1ECE7DD
:10089C0010B504460268136923F44053C1680B4336
:1008AC00136183680269134342691A430168CB6878
:1008BC0023F4B05323F00C031343CB600268536949
:1008CC0023F4407381690B4353610268134B9A42C2
:1008DC0020D0FFF7B5FD024602EB820202EB82024A
:1008EC0063689B00B2FBF3F20D48A0FB023149098F
:1008FC00642303FB11231B013233A0FB03235B098D
:10090C0003F0F00202EB011203F00F032168134411
:10091C008B6010BDFFF7A4FD0246DDE700380140F7
:10092C001F85EB512DE9F04383B005460E46174663
:10093C009946DDF828802C68246836EA04030CBF3D
:10094C004FF0010C4FF0000CBC4528D1B8F1FF3F23
:10095C00F1D0FFF769FDA0EB0900404523D8B8F1B1
:10096C00000F22D02B68DA6812F0040FE3D0802E2F
:10097C00E1D0402EDFD01A6812F0080FDBD0002433
:10098C0001941A6801925B680193019B2846FFF75A
:10099C0051FF08236B6485F84040012000E00020E3
:1009AC0003B0BDE8F0830320FAE70320F8E760B357
:1009BC0010B5044690F8413013B3242384F8413029
:1009CC002268D36823F40053D3602046FFF760FFFE
:1009DC002268136923F4904313612268536923F04E
:1009EC002A0353612268D36843F40053D360002078
:1009FC006064202384F8413084F84230606310BD79
:100A0C0080F84030FFF794FCD7E7012070472DE9C0
:100A1C00F04182B01E4690F84130DBB2202B56D10B
:100A2C0004460D469046002955D00AB901204FE0E6
:100A3C0000234364212380F84130FFF7F5FC07467F
:100A4C00A4F82480A4F82680A368B3F5805F02D0B4
:100A5C004FF0000814E023692BB34FF000080FE0AF
:100A6C00202384F84130032032E038F8023B22681E
:100A7C00C3F308035360E28C92B2013A92B2E2845F
:100A8C00E38C9BB293B100963B460022802120461A
:100A9C00FFF748FF0028E3D1002DE6D015F8012B15
:100AAC0023685A60E7E7A8460025E9E700963B462D
:100ABC00002240212046FFF735FF18B9202384F887
:100ACC00413005E0202384F84130032000E002206F
:100ADC0002B0BDE8F0810120FAE703685A6912F40C
:100AEC00806F01D1002070476FF480625A6100233F
:100AFC000363202280F83D2080F83E30026C42F0E7
:100B0C000402026480F83C30012070472DE9F0416A
:100B1C0006460C46174698463BE0FFF785FC069BBD
:100B2C00C01A404502D8B8F1000F32D1012D18D0AF
:100B3C0033689B6924EA03039BB2B3FA83F35B0922
:100B4C009F4226D100233363202286F83D2086F86D
:100B5C003E30326C42F02002326486F83C30012088
:100B6C0027E033685B6924EA03039BB2B3FA83F38F
:100B7C005B09E5E733685B6924EA030C1FFA8CFC1C
:100B8C00BCFA8CFC4FEA5C1C674511D1B8F1FF3FF5
:100B9C00C3D1C4F30745012DECD033689B6924EA1B
:100BAC00030C1FFA8CFCBCFA8CFC4FEA5C1CEBE7C8
:100BBC000020BDE8F0812DE9F84305460E4690462D
:100BCC00994653E01A6842F400721A602B686FF46D
:100BDC0080625A6100232B63202285F83D2085F822
:100BEC003E302A6C42F004022A6485F83C30012025
:100BFC004AE0FFF719FCA0EB0900404502D8B8F118
:100C0C00000F33D1012F17D02B689B6926EA030301
:100C1C009BB2003B18BF012343B300232B6320225C
:100C2C0085F83D2085F83E302A6C42F020022A647B
:100C3C0085F83C30012027E02B685B6926EA03032A
:100C4C009BB2003B18BF0123E6E72B689C6926EAA0
:100C5C000404A4B2003C18BF0124A4B12B685A6947
:100C6C0012F4806FAED1B8F1FF3FC2D1C6F3074783
:100C7C00012FEAD12B685C6926EA0404A4B2003C7B
:100C8C0018BF0124E9E70020BDE8F883F0B583B074
:100C9C0004460D4616461F46C36A082B0DD0012B81
:100CAC000BD013F5803F08D0036B122B0AD10268CE
:100CBC00136843F48073136004E02268136843F4F0
:100CCC00807313600097334600224FF001112046C9
:100CDC00FFF71CFF80B92369B3F5804F16D1236849
:100CEC0005F0FE051D613B46324613492046FFF7D1
:100CFC0062FFF8B903B0F0BD23681B6813F4807F62
:100D0C0002D04FF4007323640320F3E7EB11226845
:100D1C0003F0060343F0F00313613B4632460749E8
:100D2C002046FFF748FF18B92368EDB21D61DAE7DA
:100D3C000120DFE70120DDE70200010008000100CF
:100D4C0070B504460D46164623685B6913F0800F98
:100D5C0021D12046FFF7C1FEF8B9B5F1FF3FF3D022
:100D6C00FFF762FB801BA84201D8002DECD1236851
:100D7C005B6913F0800FE7D100232363202284F8F2
:100D8C003D2084F83E30226C42F02002226484F82C
:100D9C003C30012000E0002070BD0120FCE770B564
:100DAC0004460D46164623685B6913F0040F21D1E7
:100DBC002046FFF792FEF8B9B5F1FF3FF3D0FFF7ED
:100DCC0033FB801BA84201D8002DECD123685B6952
:100DDC0013F0040FE7D100232363202284F83D2075
:100DEC0084F83E30226C42F02002226484F83C30BD
:100DFC00012000E0002070BD0120FCE770470000DE
:100E0C00002800F0CC8070B5044690F83D30002BE3
:100E1C0077D0242384F83D302268136823F0010333
:100E2C0013602268136843F400431360226813684C
:100E3C0023F400431360FFF703FB62685A4B9A429A
:100E4C0064D85A4B98428CBF00230123002B40F0EE
:100E5C00A8805749A1FB00318B0C25686A6822F0E9
:100E6C003F0242EA91426A6021680A6A22F03F021C
:100E7C0066684D4DAE424FD8013313430B62216867
:100E8C00CA6922F44F4222F0FF026668464B9E422A
:100E9C004CD8431E7600B3FBF6F3013340F6FC70DE
:100EAC00034278D0C3F30B031343CB6121680B6867
:100EBC0023F0C003E269206A024313430B602168EC
:100ECC008B6823F4034323F0FF032269E068024399
:100EDC0013438B602168CB6823F0FF036269A06920
:100EEC0002431343CB602268136843F00103136081
:100EFC0000202064202384F83D30206384F83E00D9
:100F0C0070BD80F83C30FFF779FF82E7294B98429F
:100F1C008CBF0023012399E74FF4967505FB03F36F
:100F2C00254DA5FB03539B090133A6E7A368BBB969
:100F3C00451E06EB460CB5FBFCF50135C5F30B0560
:100F4C00B5FA85F56D0945BBC3B9013806EB460307
:100F5C00B0FBF3F30133C3F30B0343F40043A3E7F8
:100F6C00451E06EB860C0CEB8C0CB5FBFCF5013529
:100F7C00C5F30B05B5FA85F56D09E4E7013806EB09
:100F8C00860303EB8303B0FBF3F30133C3F30B03CF
:100F9C0043F4404388E7042386E7012384E70120D8
:100FAC0070470120ACE700BFA08601007F841E00C3
:100FBC0083DE1B43FF083D00D34D62102DE9F04347
:100FCC0085B004460F46914698460C9EFFF72CFAC6
:100FDC00054694F83D00C0B2202804D002273846BC
:100FEC0005B0BDE8F0830095192301224F49204636
:100FFC00FFF78CFD002840F0928094F83C30012BD8
:10100C0000F08F80012384F83C3023681A6812F0BA
:10101C00010F03D11A6842F001021A6022681368AA
:10102C0023F400631360212384F83D30102384F8EB
:10103C003E3000232364C4F82490A4F82A80638DE6
:10104C0023853B4BE3622B46324639462046FFF75D
:10105C001DFE0746002866D10023039323685A69B6
:10106C0003929B690393039B11E0236C042B01D027
:10107C000127B4E72268136843F400731360F7E7A1
:10108C002A4631462046FFF78AFE00282ED1238DB2
:10109C00002B36D02A4631462046FFF751FE002859
:1010AC00E3D1626A236812781A61606A431C636236
:1010BC00618D89B2013989B26185238D013B9BB267
:1010CC0023852268516911F0040FD9D0002BD7D099
:1010DC0043781361636A01336362638D9BB2013B96
:1010EC009BB26385238D013B2385C9E7236C042BBD
:1010FC0001D0012773E72268136843F4007313606F
:10110C00F7E72268136843F400731360202384F814
:10111C003D30002384F83E3084F83C305FE70227F2
:10112C005DE702275BE7012759E700BF02001000CB
:10113C000000FFFF014B1868704700BFE804002057
:10114C0008B5094A13680133136000F0DDFF036C26
:10115C00013B036413B101F0B7F908BDC36B036421
:10116C0001F000F8F7E700BFE8040020002815DBC9
:10117C000C4981FB0023C217C2EBA3124FF47A7CFB
:10118C000CFB02F2831A0CFB03F303F2E73381FB33
:10119C000301D817C0EBA110104470474FF0FF307B
:1011AC00704700BFD34D621000207047002070477D
:1011BC000020704710B5044C02E054F8043B9847EB
:1011CC00024B9C42F9D310BD2C2E0008302E000887
:1011DC0010B5044C02E054F8043B9847024B9C4277
:1011EC00F9D310BD302E0008342E000808B5FFF7D7
:1011FC00EFFFFFF737F808BD00B583B01423019358
:10120C000A2300934FF4807300220449044800F031
:10121C0081FF01F046F803B05DF804FBF9110008FA
:10122C00682A000808B5FEF78BFF01F069FB00F097
:10123C00ABFB01F0A9F900F0D1FDFFF7DDFF01F0E8
:10124C00B1F900F02FF800F0EFFD002008BD08B553
:10125C00FFF7E8FF002008BD38B513E00E4B1B6804
:10126C001D4655F814195A684A60196811605B607C
:10127C001B60586900F0CEFC284600F092FD204619
:10128C00FEF762FFFEF75CFF0446034B1A689A42B6
:10129C00E4D1FEF759FF38BD2C07002008B5FFF745
:1012AC00DBFFFCE710B584B00A4C202303931F230B
:1012BC0002934FF480730193074B00930023074A6A
:1012CC000749204600F004FF204600F0EAFF04B076
:1012DC0010BD00BFEC04002064050020A91200081A
:1012EC00702A000870B5044616461D460A460221AF
:1012FC0000F0F6FC04F11403A3616361A68365722C
:10130C00002070BD2DE9F04182B005460191FEF739
:10131C0017FF0746AB8BF3B9019B13B300F0F4FE38
:10132C0004460023036305F1140695F8098000F0C8
:10133C0047FFB8F1000F19D0B8F1010F1FD0019B76
:10134C00002B3ADC3846FEF7FFFE00F085FD206BE3
:10135C0002B0BDE8F081013BAB83FEF7F5FE002047
:10136C00F6E7FEF7F1FE6FF00100F1E704F114036C
:10137C00726813607268A26173606661DFE76B6903
:10138C009E420FD094F8351093F82120914201D34E
:10139C001B68F5E704F1140259680A605968A161E9
:1013AC005A6063619E42CAD104F1140372681360DF
:1013BC007268A26173606661C1E704F1440501AA19
:1013CC000021284601F055F8284600F0CFFFB9E778
:1013DC0038B50446FEF7B4FE054604F11403606903
:1013EC0083420AD0143800F039FF01242846FEF756
:1013FC00ABFE012C10D0204638BDA38B4FF6FF72EC
:10140C00934203D00133A3830024EFE72846FEF771
:10141C009BFE6FF00204EEE700F01EFD0024EAE7ED
:10142C0008B5FEF78DFE044A13780133DBB2137056
:10143C00FEF78AFE08BD00BF6406002008B5FEF763
:10144C007FFE044A1378013BDBB21370FEF77CFE7F
:10145C0008BD00BF640600202DE9F04784B0994612
:10146C000D9C0E9D15F0400F17D0DFF84CA115F018
:10147C00100F01D025F0010515F0010F10D030260A
:10148C0015F0020F11D0002A0CDB15F0040F21D13E
:10149C0015F0080F20D1002708E0DFF820A1E6E7BF
:1014AC002026EDE752422D2700E0002792BB302387
:1014BC008DF800304FF0010CA4452EDC22460C9B1D
:1014CC009B1A15F0110F38D117B1002B00DD013B21
:1014DC009E4626E02B27E9E72027E7E7384BA3FBBE
:1014EC00023E4FEADE0E0EEB8E08A2EB4808724667
:1014FC001AF808E00CF110036B4403F810EC0CF133
:10150C00010C002AD8D0B9F10A0FE7D002F00F086D
:10151C001209EDE74FF0000CF3E76246CFE701301C
:10152C009E460EF1FF33BEF1000F06DD8842F6D267
:10153C004FF0200E80F800E0F1E727B1884200D28E
:10154C000770013B013015F0100F02D00CE0013098
:10155C002B465D1E002B03DD8842F8D20670F6E7A1
:10156C002B4601E00130724602F1FF3E624506DD7A
:10157C008842F7D230220270F4E7013094460CF125
:10158C00FF32BCF1000F0BDD54B18842F5D202F1F1
:10159C0010056D4415F8105C0570EEE7013013462C
:1015AC005A1E002B04DD8842F8D220230370F5E785
:1015BC0004B0BDE8F08700BF082C00081C2C000804
:1015CC00CDCCCCCC032A22D910B4CCB210F0030F62
:1015DC001FD144EA042444EA0444034605E01C6099
:1015EC005C609C60DC60103A10330F2AF7D802E084
:1015FC0043F8044B043A032AFAD802E003F8011B1F
:10160C00624602F1FF3C002AF8D110BC7047034639
:10161C0004E00346F5E703F8011B624602F1FF3CC8
:10162C00002AF8D170479AB110B5944603468E46FD
:10163C000C7801311C7001331CB1BCF1010CF6D1DA
:10164C0010BDBCF1010CFBD0002203F8012BF8E714
:10165C007047034600E001331A78002AFBD1181AB0
:10166C00704700002DE9F04186B0074688461446C5
:10167C000593461803D36FEA00084FF0FF3638463F
:10168C0001E0013001342378002B00F05681252B2A
:10169C0003D0B042F5D20370F3E7002101E041F032
:1016AC00100114F8013F2D2BF9D02B2B08D0202B37
:1016BC0009D0232B0AD0302B0BD141F00101F0E7DC
:1016CC0041F00401EDE741F00801EAE741F02001A7
:1016DC00E7E7A3F13002092A1BD92A2B1BD04FF0C4
:1016EC00FF3523782E2B21D04FF0FF3C2278682A2F
:1016FC0043D06C2A41D0002240E005EB850514F85C
:10170C00013B03EB4505303D2378303B092BF4D9E5
:10171C00E7E70025F8E70134059B1A1D05921D68C3
:10172C00002DDEDA6D4241F01001DAE714F8013FCA
:10173C00A3F13002092A16D92A2B17D04FF0000C2E
:10174C00D4E70CEB8C0C14F8013B03EB4C0CACF118
:10175C00300C2378303B092BF3D9BCF1000FC5DAE0
:10176C004FF0000CC2E74FF0000CF2E70134059B80
:10177C001A1D0592D3F800C0EFE701342378252B0E
:10178C0000F09180C0F0B080782B00F2AD80582B27
:10179C00C0F0AA80583B202B00F2A680DFE803F0B3
:1017AC009CA4A4A4A4A4A4A4A4A4A411A0A4A4A48C
:1017BC00A4A0A4A4A4A4A4896FA4A430A4B3A4A496
:1017CC00B50011F0100F09D0059B1A1D05921B785E
:1017DC00B04200D20370013009E00130013D002D10
:1017EC00F2DDB042F9D220230370F6E70130013D5F
:1017FC00002D7FF747AFB042F8D220230370F5E7F6
:10180C00059B1A1D05921A680AB1002302E0524A80
:10181C00FBE70133AB4204D012F803E0BEF1000F3A
:10182C00F7D1BCF1000F02DD634500DD634611F01A
:10183C00100F03D000210EE001300D46691EAB42A3
:10184C0004DAB042F8D220250570F5E70D46F1E731
:10185C00013001320131994208DAB042F8D292F8E3
:10186C0000C080F800C0F3E7013015466A1EAB4299
:10187C00BFF608AFB042F7D220210170F4E7B5F102
:10188C00FF3F0CD0059B1A1D05921A680291CDF8EA
:10189C0004C0009510233146FFF7DEFDF2E641F05F
:1018AC0001010825EEE7B04201D225230370013077
:1018BC00E8E608236C2A2AD0682A2FD0059A02F170
:1018CC00040ECDF814E012680291CDF804C0009516
:1018DC003146FFF7C1FDD5E641F040011023E9E7A1
:1018EC0041F002010A23E5E7B04201D2252303703F
:1018FC00421C237823B1B24200D243700230C1E6BD
:10190C00013C1046BEE60A23D4E71023D2E7059A21
:10191C0002F1040ECDF814E01268D5E7059A02F135
:10192C00040ECDF814E0D2F800E01FFA8EF211F09C
:10193C00020FC9D00FFA8EF2C6E7B8F1000F02D031
:10194C00B04204D20370C01B06B0BDE8F081002386
:10195C0006F8013CF7E700BF782A00080FB410B571
:10196C0082B004AB53F8042B0193064C7F21204624
:10197C00FFF778FE204600F069FF02B0BDE810408A
:10198C0004B070476806002000B583B00948FFF723
:10199C00E5FF0948FFF7E2FF084B009305230122FE
:1019AC0003210748FFF7DAFF0648FFF7D7FF03B01C
:1019BC005DF804FB802A00088C2A0008D02A000855
:1019CC00B02A0008DC2A0008E8B110F0FF020AD1A6
:1019DC0010F47F4F0BD110F47F0F0ED1030E0A4A77
:1019EC00D05C19307047084B985C01307047C0F3DD
:1019FC000723054AD05C09307047C0F30743024AFD
:101A0C00D05C113070477047082B0008164B1968D2
:101A1C0042680A4490420FD053886BB9134B1B6831
:101A2C00934209D0124B1B68934216D05368436003
:101A3C0053680B44421A9A6083680B4498420BD04B
:101A4C005A884AB90A4A1268824209D042685A60D6
:101A5C0042680A445B1A93607047054B1860E5E7CF
:101A6C00034A1360F2E700BFEC060020E8060020F2
:101A7C001007002070B50A4621F00303182B06D975
:101A8C00C41C24F00304A3F11801A14204D20146A2
:101A9C001148FFF763FF70BD1B1BA3F118010F4A20
:101AAC0011600F4D2C604FF4F5522280A3F10C0104
:101ABC0061600023A360638060180A4E306062523C
:101ACC00012242804160816007490848FFF70AFC07
:101ADC002A68074B1A60DEE7382C0008180700202C
:101AEC00EC060020E8060020302C0008F006002050
:101AFC001007002000287AD0F8B50546033525F0EC
:101B0C0003053D4B1B689D4273D80B2D00D80C254B
:101B1C004FF0FF313948FFF7F5FB394B1E68394B55
:101B2C001868331A1DE001236380231AFB1A364A06
:101B3C0011680B441360354A1268934247D9334AF3
:101B4C00136044E05B6803442D4A13602C4B1B6804
:101B5C005A88002A40D02E4A12689342F2D13BE0B8
:101B6C006368254A1268511B99423BD9C418618895
:101B7C000029F5D16768F91A0C39A942F0D305F19F
:101B8C00180C6145CFD3E9180C3100EB010C4FF464
:101B9C00F55747520027ACF802706768CCF8047010
:101BAC00CCF80830616001236380DCF804300C321F
:101BBC00934201D003449960134A13682B440C33AD
:101BCC001360124A1268934201D9104A13604FF401
:101BDC00F5532380A642B9D00848FFF7F9FB04F16E
:101BEC000C0003E00548FFF7F3FB0020F8BD0020D4
:101BFC0070470020FAE700BF18070020F00600200D
:101C0C0010070020EC0600201C0700201407002001
:101C1C00E8060020002842D038B50446204B1B684B
:101C2C00834203D81F4B1B68834200D838BDA0F1F8
:101C3C000C054FF0FF311C48FFF764FB34F80A3CED
:101C4C0023B134F80C3CB3F5F55F0AD01748FFF715
:101C5C0085FE34F80C3C34F80A2C29461448FFF75E
:101C6C007DFE002324F80A3C4FF4F55324F80C3C79
:101C7C00104B1B68AB4201D90E4B1D60084B1B6807
:101C8C00EB1A54F8081C0C4A5B1A11680B441360CD
:101C9C002846FFF7BBFE0448FFF79AFBC6E77047E0
:101CAC00EC060020E8060020F0060020742C00084A
:101CBC00902C0008100700201C0700200023032B89
:101CCC0009DC1A0105498A5C824201D00133F6E72E
:101CDC0001EB031070470020704700BF0C00002080
:101CEC002DE9F04106460F4690460846FFF7E6FF01
:101CFC00054600F035F96B6800E01B682C1D9C4212
:101D0C00FBD100F039F967F07F07377208224146A2
:101D1C003046FFF788FCFEF713FA06F10C036A68ED
:101D2C0053606A68F2606B603461FEF70DFABDE8CF
:101D3C00F08110B5044600230372FEF701FA04F19A
:101D4C000C03E16822694A60E16811602361E36079
:101D5C00FEF7FAF910BDF8B507460E46FFF7AEFFD1
:101D6C000446C068FFF7C6FE0546C0B1E268002114
:101D7C00FFF728FC2F7200236B720822314628468D
:101D8C00FFF751FCFEF7DCF9221D05F10C0361682D
:101D9C004B606168E96063602A61FEF7D5F92846FB
:101DAC00F8BD10B5044600230372FEF7C9F904F11F
:101DBC000C03E16822694A60E16811602361E36009
:101DCC00FEF7C2F92046FFF725FF10BD90F9083049
:101DDC00002B01DB002070470120704700230C4AC8
:101DEC00138006E00B4901EBC302526041F833202B
:101DFC0001331F2BF6DD084B1F221A700023074AF4
:101E0C001360074A1360074B5B601B60704700BF91
:101E1C00280700203407002020070020240700207A
:101E2C00340800202C07002008B5084B1868FFF771
:101E3C00CBFD0138064B53F83000A0F11402054BD2
:101E4C001A600830FEF7B1F908BD00BF3408002055
:101E5C00340700202407002038B5FEF771F904463A
:101E6C00144BB3F90030C3B9134B1868FFF7ACFD32
:101E7C00431E124A52F83310A1F1140210480068A4
:101E8C0090420AD00F4D2B700D4B1A600E4B1B78E5
:101E9C003BB108311C30FEF75AF92046FEF754F9D5
:101EAC0038BD08311C30FEF752F92046FEF74CF9CC
:101EBC00F6E700BF28070020340800203407002074
:101ECC0024070020200700206406002010B50446DB
:101EDC00FEF736F994F9343023F00F0343F0010385
:101EEC0084F8343094F83520094B03EBC20304F129
:101EFC00140259680A605968A1615A606361A16B48
:101F0C00044A13680B431360FEF71EF910BD00BFA3
:101F1C00340700203408002010B50446FEF710F9F1
:101F2C0004F114036169A2694A6061691160A361DB
:101F3C00636194F83520084B03EBC20153F832303F
:101F4C00994202D0FEF700F910BDA16B034A136849
:101F5C0023EA01031360F5E734070020340800205E
:101F6C0008B5FEF7EDF8034A138801331380FEF72A
:101F7C00EBF808BD2807002008B5FEF7E1F80B4A7E
:101F8C001388013B1BB21380002B02DDFEF7DCF83B
:101F9C0008BD134600221A80FEF7D6F8044B1B68C6
:101FAC00002BF5D0FFF758FFF2E700BF2807002001
:101FBC002407002038B50446FEF7C2F80546236F07
:101FCC000BB1204698472846FEF7BEF838BD0000F6
:101FDC0038B5144B1C68FEF7B3F805462046FFF7DE
:101FEC00E9FF2046FFF798FF042384F8343004F10E
:101FFC00440000F097F92046FFF7E8FE01280DD0C9
:10200C0004F11402084B19684A6061611A60A361FB
:10201C00FFF722FF2846FEF797F838BD2046FFF75A
:10202C0088FEF5E7240700202C070020F0B583B0CC
:10203C00044617460898099A9DF828500B9E04F1FF
:10204C001401A161616127626362A062E2622321D3
:10205C00FFF7B8FAA16AE36A1A1F104B0A44616AC7
:10206C00206A00F0A1FAE06184F8365084F835500B
:10207C000025A563E6632664256384F83450256740
:10208C006567019500952346054A214604F14400F5
:10209C0000F034F9284603B0F0BD00BFDD1F000886
:1020AC00B120000808B56FF00102026300F11402C0
:1020BC008169D0F814C0CCF80410D0F814C0C1F861
:1020CC0000C082614261FFF701FFFFF7C5FE08BD4A
:1020DC00F0B585B005460C4616461F460A4601214A
:1020EC00FFF7FEFD0D9B03939DF8303002930B9B85
:1020FC0001930A9B00933B46324621462846FFF744
:10210C0095FF05B0F0BD0000014B1868704700BF8B
:10211C00240700202DE9F04385B004460F46904675
:10212C001D4601460120FFF716FE064688B12846DB
:10213C00FFF7E0FC814680B10D9B03939DF8303096
:10214C0002930195009043463A4621463046FFF7EC
:10215C006DFF304605B0BDE8F0833046FFF721FE39
:10216C004E46F6E710B5FDF7EBFF134B1B6893F8E3
:10217C00342002F00F02012A03D159699A69914265
:10218C0003D1FDF7E1FF002010BD03F114044A60F8
:10219C00596911609C615C6193F83510074A02EB38
:1021AC00C10251680C605168996154605A61FDF725
:1021BC00CBFFFFF751FEE6E7240700203407002091
:1021CC0038B590F8343003F00F03012B17D10446C7
:1021DC00FDF7B6FF05462046FFF79EFE94F9343016
:1021EC0023F00F0343F0020384F8343004F144006D
:1021FC0000F018F92846FDF7A7FF002038BD4FF076
:10220C00FF30FBE770B582B00190FDF799FF0546F2
:10221C000E4B1C682046FFF7D3FF04F1440601AABD
:10222C000021304600F025F9304600F09FF8284692
:10223C00FDF78AFFFFF710FE236B13F1020F02D09C
:10224C00002002B070BD00232363F9E724070020AF
:10225C0008B5FEF78BFFFFF7D5FF08BD38B590F832
:10226C00343003F00F03022B18D10446FDF768FF3E
:10227C00054604F114036169A2694A606169116041
:10228C00A361636104F1440000F0CCF82846FDF72B
:10229C005BFF2046FFF71AFE002038BD4FF0FF30E1
:1022AC00FBE708B590F8361080F8351001228A400B
:1022BC008263022280F83420FFF7D0FFFFF724FF5F
:1022CC0008B1FFF7C9FD002008BD9DF800C080F8DB
:1022DC0009C02CF0010C80F809C0C1610262002217
:1022EC00826243621346002B00DD70479A1C00EBA0
:1022FC00C202111D916051600133F4E770B582B0D8
:10230C00044615461E460A460A21FFF7E9FC9DF8CD
:10231C001C300093069B324629462046FFF7D5FF1A
:10232C0002B070BD38B50446FDF70AFF0022002A42
:10233C000ADD637A23F001036372FDF705FF204683
:10234C00FFF7F7FC002038BD931C04EBC303191DE9
:10235C009D68D3F804C0CCF80450D3F804C0C5F879
:10236C0000C0996059600132E1E7000070B582B09D
:10237C000446FDF7E5FE05460022002A23DD637ABC
:10238C0023F001036372FEF7D5FE636AC618A662DA
:10239C00224B0193002242B3214A1368013313608C
:1023AC00019B04F1140219684A60196861611A6092
:1023BC00A361637A43F0010363722846FDF7C4FE00
:1023CC00002002B070BD931C04EBC303191D5E68A2
:1023DC00986870605E680660996059600132CCE75D
:1023EC0002AB03EB820343F8041C02AB03EB820346
:1023FC0053F8040CD300094901EBC2014968884227
:10240C000AD001681433CB1A9B6A9E42E8D09B1BFE
:10241C006FF000408342E3D20132BCE73C0800205D
:10242C003808002038B5437A13F0010F1ED004464B
:10243C00FDF786FE0022002A07DD637A23F00103F4
:10244C006372FDF781FE002038BD931C04EBC303BF
:10245C00191D9D68D3F804C0CCF80450D3F804C0FF
:10246C00C5F800C0996059600132E4E74FF0FF30C5
:10247C00EAE770B505460C461646FDF761FE042CDE
:10248C0006D8DFE804F009030C1116006B6A336000
:10249C00FDF75AFE002070BD33686B62F8E76B7A6B
:1024AC0023F002036B72F3E76B7A43F002036B7257
:1024BC00EEE76B7A13F0010F02D001233360E7E7EC
:1024CC0000233360E4E700002DE9F04182B0CDF841
:1024DC0004D0CDF800D0FEF72DFE0546FDF730FEFA
:1024EC00804632E0931C06EBC303191D5D689868A7
:1024FC0068605D680560996059600132002AF1DD01
:10250C0014F80B3C13F0020F03D123F0010304F871
:10251C000B3C009B5C60236000946F466760A36873
:10252C00E0689847FEF706FE0546009BBB420CD0C0
:10253C0022686368536022681A606460246014F82F
:10254C000B3C03F00302032A0DD00E4B1C689C427B
:10255C0011D0A4F114066369EB1A6FF00042934298
:10256C0009D20022CAE723F0010304F80B3C3046E1
:10257C00FFF7FCFEE9E74046FDF7E6FD02B0BDE8DB
:10258C00F08100BF3C080020002303B170470449D0
:10259C0001EBC302526041F833200133F5E700BF71
:1025AC003C0800207047000030B40546043222F08D
:1025BC00070CACF14000002203E00D4C40F8224027
:1025CC0001320F2AF9D94CF8201C00224CF81C2C93
:1025DC004CF8182C4CF8142C4CF8102C4CF80C3CD7
:1025EC004CF8085C4FF080734CF8043C30BC7047DE
:1025FC00EFBEADDE10B504462A4B1B6813B19847ED
:10260C0000284ED0216C2848FFF7A8F9616A2748AA
:10261C00FFF7A4F9A16A2648FFF7A0F9E16A25485B
:10262C00FFF79CF9216B2448FFF798F96168234860
:10263C00FFF794F9A1682248FFF790F9E168214867
:10264C00FFF78CF921692048FFF788F961691F4869
:10265C00FFF784F9A1691E48FFF780F9E1691D486D
:10266C00FFF77CF9216A1C48FFF778F9616B1B486E
:10267C00FFF774F9A16B1A48FFF770F9E16B194871
:10268C00FFF76CF9236813F0040F06D0FFF73CFD3D
:10269C0001461548FFF762F9FEE71448FFF75EF9AB
:1026AC00FAE710BD44080020C02C0008D02C00080C
:1026BC00E02C0008F02C0008002D0008102D00085C
:1026CC00202D0008302D0008402D0008502D00084A
:1026DC00602D0008702D0008802D0008902D00083A
:1026EC00A02D0008B02D0008C02D0008E02D00081A
:1026FC000138B0F1807F0BD24FF0E0235861054ACE
:10270C00FF2182F823100020986107221A6170477C
:10271C000120704700ED00E008B50A480A4B036041
:10272C004FF4E1334360002383610C224261C361A7
:10273C008360C3600361FEF73AF900B1FEE7002045
:10274C0008BD00BFA80800200038014030B589B092
:10275C0000240494059406940794184B9A6942F04B
:10276C0010029A619A6902F010020192019A9A6918
:10277C0042F020029A619A6902F020020292029AB7
:10278C009A6942F004029A619B6903F00403039373
:10279C00039B0B4D22464FF400512846FDF782FF58
:1027AC004FF40053049311230593069402230793CB
:1027BC0004A92846FDF764FE09B030BD00100240A4
:1027CC000010014010B586B01B4BDA6942F40012C0
:1027DC00DA61DA6902F400120092009A9A6942F006
:1027EC0008029A619B6903F008030193019B002482
:1027FC000294039404940594C0230293122303932C
:10280C000323059302A90D48FDF73AFE0C480D4B26
:10281C0003600D4B43608460C4604FF480430361DC
:10282C0044618461C4610462FEF7EAFA00B1FEE718
:10283C00002006B010BD00BF00100240000C01408B
:10284C005408002000540040801A0600F0B583B0F4
:10285C0005460D238DF8073000240F4B83F84040BC
:10286C00FEF7F7FE074606E001231A4631460A48F2
:10287C00FEF7CDF80134BC420BD22E192B5D0A2B7E
:10288C00F2D101231A460DF107010348FEF7BFF8F8
:10289C00EAE703B0F0BD00BFA808002010B588B06F
:1028AC000DF10C0C0E4C0FCCACE80F0023682CF87F
:1028BC00023B1B0C8CF800304FF0FF3300931323BA
:1028CC0003AAF0210748FEF779FB20B90648FFF769
:1028DC0045F808B010BD0548FFF740F8F9E700BF10
:1028EC00102A000854080020FC2D0008142E0008A3
:1028FC0000487047F008002000487047F01800208E
:10290C0010B5FDF77FFDFDF74BFF0D4B18680D4B18
:10291C00A3FB00308009FFF7EBFEFFF7FDFEFFF78E
:10292C0015FFFFF74FFFFEF745FCFFF7E1FF0446ED
:10293C00FFF7E2FF01462046FFF79CF810BD00BFF1
:10294C0008000020D34D621008B5FEF769FDFEF7B4
:10295C00F7FBFEF773FD08BDFDF720FF0B480C4994
:10296C000C4A002302E0D458C4500433C4188C42DF
:10297C00F9D3094A094C002301E013600432A24246
:10298C00FBD300F00FF8FEF762FC7047000000204C
:10299C004C000020402E00084C000020F0180020B5
:1029AC00FEE7000070B500260C4D0D4C641BA41006
:1029BC00A64209D100F01AF800260A4D0A4C641BF5
:1029CC00A410A64205D170BD55F8043B98470136BA
:1029DC00EEE755F8043B98470136F2E7382E00082D
:1029EC00382E0008382E00083C2E0008F8B500BF21
:1029FC00F8BC08BC9E467047F8B500BFF8BC08BCD4
:042A0C009E4670472B
:102A100000A83FD30040A0C0DA02817FA5A6D580E0
:102A20008D14AF00746872656164310074687265FA
:102A3000616432005468697320697320746865208A
:102A40006D61696E20746872656164210A0000001E
:102A5000000000000000000001020304060708094E
:102A600000000000010203046D61696E00000000B7
:102A70007469646C65000000284E554C4C290000B8
:102A80000A205C207C202F0A000000002D205254D8
:102A9000202D2020202020546872656164204F7012
:102AA00065726174696E672053797374656D0A008D
:102AB000202F207C205C202020202025642E2564CF
:102AC0002E2564206275696C642025730A0000005D
:102AD00053657020313520323032340020323030AE
:102AE00036202D203230323020436F707972696782
:102AF00068742062792072742D7468726561642034
:102B00007465616D0A000000000001000200010010
:102B100003000100020001000400010002000100A6
:102B20000300010002000100050001000200010095
:102B30000300010002000100040001000200010086
:102B40000300010002000100060001000200010074
:102B50000300010002000100040001000200010066
:102B60000300010002000100050001000200010055
:102B70000300010002000100040001000200010046
:102B80000300010002000100070001000200010033
:102B90000300010002000100040001000200010026
:102BA0000300010002000100050001000200010015
:102BB0000300010002000100040001000200010006
:102BC00003000100020001000600010002000100F4
:102BD00003000100020001000400010002000100E6
:102BE00003000100020001000500010002000100D5
:102BF00003000100020001000400010002000100C6
:102C00000300010002000100303132333435363721
:102C100038394142434445460000000030313233E8
:102C20003435363738396162636465660000000008
:102C300068656170000000006D656D20696E6974E3
:102C40002C206572726F7220626567696E20616404
:102C5000647265737320307825782C20616E64204F
:102C6000656E6420616464726573732030782578C2
:102C70000A000000746F2066726565206120626141
:102C800064206461746120626C6F636B3A0A0000B7
:102C90006D656D3A203078253038782C2075736555
:102CA0006420666C61673A2025642C206D61676939
:102CB0006320636F64653A203078253034780A00E9
:102CC0007073723A203078253038780A000000009E
:102CD0007230303A203078253038780A0000000011
:102CE0007230313A203078253038780A0000000000
:102CF0007230323A203078253038780A00000000EF
:102D00007230333A203078253038780A00000000DD
:102D10007230343A203078253038780A00000000CC
:102D20007230353A203078253038780A00000000BB
:102D30007230363A203078253038780A00000000AA
:102D40007230373A203078253038780A0000000099
:102D50007230383A203078253038780A0000000088
:102D60007230393A203078253038780A0000000077
:102D70007231303A203078253038780A000000006F
:102D80007231313A203078253038780A000000005E
:102D90007231323A203078253038780A000000004D
:102DA000206C723A203078253038780A0000000014
:102DB0002070633A203078253038780A000000000F
:102DC00068617264206661756C74206F6E2074682F
:102DD000726561643A2025730D0A0D0A0000000037
:102DE00068617264206661756C74206F6E20686122
:102DF0006E646C65720D0A0D0A00000064617461F6
:102E0000207472616E736D6974207375636365738A
:102E100073210A0064617461207472616E736D695C
:0C2E200074206572726F72210A000000BD
:042E2C00B5110008D4
:042E3000B9110008CC
:042E3400BD110008C4
:042E3800310100085C
:042E3C000D0100087C
:102E4000010000001000000000127A0001000000E4
:102E50001000002010000020780000000200000098
:102E600020000020200000202000000005000000BD
:102E70003000002030000020300000000A00000078
:0C2E800040000020400000202C0000005A
:040000050800296561
:00000001FF
